S01A000041546D6567613332415F4669726D576172652E73726563B9
S11300000C942A000C9482040C94AB040C94D40435
S11300100C9447000C9447000C9447000C94470040
S11300200C9447000C9447000C94A2050C9475059D
S11300300C9447000C9447000C9447000C94470020
S11300400C9447000C9447000C9447000C94470010
S11300500C94470011241FBECFE5D8E0DEBFCDBF0E
S113006011E0A0E6B0E0E8EEF4E102C005900D92E4
S1130070A430B107D9F721E0A4E0B1E001C01D929A
S1130080AD31B207E1F70E94D1010C94720A0C94CD
S1130090000041E060E083E390E00E94450440E01A
S11300A061E083E390E00E944504089560910901B2
S11300B070910A0180910B0190910C0120916100D3
S11300C0822F90E00E94CF05609105017091060196
S11300D0809107019091080120916000822F90E0A7
S11300E00E94CF05809161008F5F809361008091B1
S11300F060008F5F8093600008954F925F926F92CB
S11301007F928F929F92AF92BF92CF92DF92EF92A3
S1130110FF92CF93DF931F92CDB7DEB781E089833F
S11301200F2EF4E68F2E912CA12CB12CF02DAAC009
S11301300E949A0320E030E040E450E460E080E074
S11301400E94D0026B017C010E94EA0560930901C0
S113015070930A0180930B0190930C0120E030E02E
S113016048EC52E4C701B6010E94D0060E94EA0599
S1130170A50194010E943D072B013C0160930501F8
S113018070930601809307019093080182E690E042
S11301900E949E03C701B6010E94E3050E94C103A9
S11301A08AE690E00E949E03C301B2010E94C1034B
S11301B08CE690E00E949E0320E030E040E450E4AE
S11301C060E080E00E94D00226E636E646E250E493
S11301D00E94CB0688234CF041E064E080E390E089
S11301E00E94450481E08093040120E030E040E473
S11301F050E460E080E00E94D00226E636E646E263
S113020050E40E94DE05882374F441E060E083E357
S113021090E00E94450441E061E083E390E00E94A5
S11302204504109204012FEF81EE94E021508040A8
S11302309040E1F700C000000E94560064E082E0B4
S11302400E94AD038EE690E00E949E03698170E0F7
S113025080E090E00E94C10360E083E00E94AD036F
S113026086E790E00E949E0389818F5F89832FEF48
S113027089E698E1215080409040E1F700C00000F9
S11302800E949A0367E080E390E00E94650488235B
S113029029F0809161008B3009F04ACF81E080938E
S11302A061008BE0809360000E949A030F90DF91BD
S11302B0CF91FF90EF90DF90CF90BF90AF909F9041
S11302C08F907F906F905F904F9008950F931F933E
S11302D0CF93DF9340E060E083E390E00E94450425
S11302E041E061E083E390E00E944504C0E0D0E097
S11302F042C0809161009E01280F311DC9010E94F6
S1130300D705082F809160009E01280F311DC90177
S11303100E94D705182F65E081E00E94AD0387E8AD
S113032090E00E949E0366E082E00E94AD03602F8D
S113033070E080E090E00E94C1038AE690E00E94B1
S11303409E03612F70E080E090E00E94C10360E0B2
S113035083E00E94AD0386E790E00E949E033FEF96
S113036089E698E1315080409040E1F700C00000F8
S11303700E949A03219667E080E390E00E9465045E
S1130380882321F0CA30D10509F0B3CF81E08093EE
S113039061008BE080936000DF91CF911F910F91FA
S11303A00895CF93DF931F92CDB7DEB719820E94D1
S11303B0440327E040E060E080E00E94E00342E084
S11303C060E083E390E00E94FD0342E061E083E3A8
S11303D090E00E94FD0342E064E080E390E00E942C
S11303E0FD0342E066E089E390E00E94FD0342E001
S11303F067E089E390E00E94FD0362E080E00E94F0
S1130400060589E490E090931201809311018FB75F
S113041080688FBF11E00BE01093610000936000CF
S1130420198280910401813069F4412F60E083E3F3
S113043090E00E94450440E0612F83E390E00E9435
S113044045040CC040E060E083E390E00E94450472
S113045040E0612F83E390E00E94450440E066E0C1
S113046089E390E00E944504412F67E089E390E02E
S11304700E94450460E080E00E94AD038EE890E0B5
S11304800E949E0360E0812F0E94AD038CE990E0FE
S11304900E949E032FEF83EC99E02150804090400E
S11304A0E1F700C000002DC060E082E00E94AD03CF
S11304B088EA90E00E949E0360E083E00E94AD031E
S11304C08EEA90E00E949E0365E080E390E00E9443
S11304D065048130B1F089818F5F89836EE082E0A9
S11304E00E94AD03698170E080E090E00E94C10346
S11304F02FEF83EC99E0215080409040E1F700C059
S1130500000067E080E390E00E946504813061F2BE
S11305100E949A038981813099F465E0812F0E94B9
S1130520AD0385EB90E00E949E032FEF89E698E1EE
S1130530215080409040E1F700C000000E947D00FF
S113054089818230A9F465E0812F0E94AD038BEB91
S113055090E00E949E032FEF89E698E121508040AD
S11305609040E1F700C000000E949A030E946601D7
S11305708981833098F062E0812F0E94AD0382EC80
S113058090E00E949E030E949A032FEF89E698E16F
S1130590215080409040E1F700C0000089813CCFA9
S11305A0CF92DF92EF92FF9269017A01603291F467
S11305B00E94E603BC0180E090E00E941906A701B6
S11305C096010E94D00620E030E040E85BE30E9400
S11305D0D00612C060E00E94E603BC0180E090E017
S11305E00E941906A70196010E94D00620E030E07F
S11305F040E85AE30E94D006FF90EF90DF90CF903E
S11306000895C098C198EFE9FFE03197F1F700C071
S11306100000C29AEFE9FFE03197F1F700C0000053
S113062098B39F7098BB98B3282F207F922B98BBC8
S1130630EFE9FFE03197F1F700C00000C298EFE95D
S1130640FFE03197F1F700C00000C29AEFE9FFE044
S11306503197F1F700C0000098B39F7098BB28B39E
S1130660F0E18F9FC0011124822B88BB8FE99FE0AA
S11306700197F1F700C00000C298EFE9FFE031975D
S1130680F1F700C00000089587B3876087BB87B384
S1130690806F87BB82E00E94010388E20E9401030D
S11306A08FE00E94010381E00E9401030895C09A33
S11306B0C198EFE9FFE03197F1F700C00000C29A5A
S11306C0EFE9FFE03197F1F700C0000098B39F70A5
S11306D098BB98B3282F207F922B98BBEFE9FFE0BB
S11306E03197F1F700C00000C298EFE9FFE03197BD
S11306F0F1F700C00000C29A98B39F7098BB28B36A
S1130700F0E18F9FC0011124822B88BB8FE99FE009
S11307100197F1F700C00000EFE9FFE03197F1F72E
S113072000C00000C2988FE99FE00197F1F700C074
S11307300000089581E00E9401030895CF93DF93A0
S1130740EC018881882331F021960E945703899116
S11307508111FBCFDF91CF910895813031F060F0AA
S1130760823029F0833029F006C0605C05C0605FE8
S113077003C0605B01C060E0862F80680E940103B3
S11307800895CF93DF93CDB7DEB765970FB6F8948E
S1130790DEBF0FBECDBFDC01CB014AE0BE016F5FFF
S11307A07F4F0E945F07CE0101960E949E036596CB
S11307B00FB6F894DEBF0FBECDBFDF91CF91089581
S11307C087B92068422B642B66B9089597B1907C51
S11307D097B9603209F43D9A97B1892B87B9369A53
S11307E0349BFECF349A603219F485B190E00895B9
S11307F084B125B190E0922B0895FC014130C9F0F9
S113080018F0423061F10895683081F0218181E06F
S113081090E002C0880F991F6A95E2F78095922FA5
S1130820982391839281892382830895118212826D
S11308300895683081F0218181E090E002C0880F42
S1130840991F6A95E2F7982F90959223918392814C
S1130850892B8283089511828FEF828308956830F3
S113086081F0218181E090E002C0880F991F6A9590
S1130870E2F7922F982B918392818095892382832A
S113088008958FEF8183128208956830D9F0413042
S113089061F4FC01428121E030E002C0220F331FE9
S11308A06A95E2F7242B22830895FC01428121E01A
S11308B030E002C0220F331F6A95E2F7209524230B
S11308C022830895FC01428308956830C1F0FC013D
S11308D0808121E030E0062E02C0220F331F0A94EB
S11308E0E2F790E02823392302C0359527956A95CD
S11308F0E2F781E02130310521F080E00895FC0128
S1130900828108951F920F920FB60F9211242F9394
S11309103F934F935F936F937F938F939F93AF9383
S1130920BF93EF93FF93E0911101F091120130977F
S113093009F00995FF91EF91BF91AF919F918F912C
S11309407F916F915F914F913F912F910F900FBEC7
S11309500F901F9018951F920F920FB60F921124AB
S11309602F933F934F935F936F937F938F939F93B3
S1130970AF93BF93EF93FF93E0910F01F0911001B8
S1130980309709F00995FF91EF91BF91AF919F9135
S11309908F917F916F915F914F913F912F910F9024
S11309A00FBE0F901F9018951F920F920FB60F92C3
S11309B011242F933F934F935F936F937F938F9360
S11309C09F93AF93BF93EF93FF93E0910D01F09149
S11309D00E01309709F00995FF91EF91BF91AF9106
S11309E09F918F917F916F915F914F913F912F9143
S11309F00F900FBE0F901F901895C7ECD0E0DF93B7
S1130A00CF930E9484070F900F90F9CF813079F132
S1130A1020F0823009F455C066C0611107C085B763
S1130A20816085BF85B7826085BF1DC0613039F4A0
S1130A3085B78E7F85BF85B7826085BF14C062305D
S1130A4039F485B7816085BF85B78D7F85BF0BC0BD
S1130A50633039F485B78E7F85BF85B78D7F85BFB9
S1130A6002C00E94FD048BB780648BBF089561119E
S1130A7007C085B7886085BF85B7846085BF1DC002
S1130A80613039F485B7886085BF85B78B7F85BFB2
S1130A9014C0623039F485B7877F85BF85B7846019
S1130AA085BF0BC0633039F485B7877F85BF85B7B1
S1130AB08B7F85BF02C00E94FD048BB780688BBF0B
S1130AC00895611104C084B7806484BF08C0613094
S1130AD021F484B78F7B84BF02C00E94FD048BB7CE
S1130AE080628BBF08950E94FD041F920F920FB67F
S1130AF00F9211242F933F934F935F936F937F93A0
S1130B008F939F93AF93BF93EF93FF9380911501BE
S1130B1090911601892B29F0E0911501F0911601AD
S1130B200995FF91EF91BF91AF919F918F917F9123
S1130B306F915F914F913F912F910F900FBE0F9046
S1130B401F9018951F920F920FB60F9211242F9396
S1130B503F934F935F936F937F938F939F93AF9341
S1130B60BF93EF93FF938091130190911401892B0C
S1130B7029F0E0911301F09114010995FF91EF918F
S1130B80BF91AF919F918F917F916F915F914F91A1
S1130B903F912F910F900FBE0F901F901895E199E0
S1130BA0FECF9FBB8EBB6DBBE29AE19A0895E1999B
S1130BB0FECF9FBB8EBBE09A8DB308950E9456066C
S1130BC008F481E008950E94EA056894B1110C9438
S1130BD0C50608950E94AA0688F09F5798F0B92F79
S1130BE09927B751B0F0E1F0660F771F881F991F5E
S1130BF01AF0BA95C9F714C0B13091F00E94C40636
S1130C00B1E008950C94C406672F782F8827B85F45
S1130C1039F0B93FCCF3869577956795B395D9F7B5
S1130C203EF490958095709561957F4F8F4F9F4FBF
S1130C300895E89409C097FB3EF4909580957095CB
S1130C4061957F4F8F4F9F4F9923A9F0F92F96E914
S1130C50BB279395F695879577956795B795F11189
S1130C60F8CFFAF4BB0F11F460FF1BC06F5F7F4F26
S1130C708F4F9F4F16C0882311F096E911C0772338
S1130C8021F09EE8872F762F05C0662371F096E841
S1130C90862F70E060E02AF09A95660F771F881F10
S1130CA0DAF7880F9695879597F90895990F0008B4
S1130CB0550FAA0BE0E8FEEF16161706E807F9072A
S1130CC0C0F012161306E407F50798F0621B730BC5
S1130CD0840B950B39F40A2661F0232B242B252B46
S1130CE021F408950A2609F4A140A6958FEF811DE9
S1130CF0811D089597F99F6780E870E060E008958A
S1130D009FEF80EC089500240A941616170618061F
S1130D100906089500240A941216130614060506FB
S1130D200895092E0394000C11F4882352F0BB0F8C
S1130D3040F4BF2B11F460FF04C06F5F7F4F8F4FEF
S1130D409F4F089557FD9058440F551F59F05F3F2A
S1130D5071F04795880F97FB991F61F09F3F79F0D9
S1130D6087950895121613061406551FF2CF46955B
S1130D70F1DF08C0161617061806991FF1CF8695DD
S1130D807105610508940895E894BB2766277727C1
S1130D90CB0197F908950E94560608F48FEF089541
S1130DA00E94E3060C9491060E94830638F00E9488
S1130DB08A0620F0952311F00C947A060C94800690
S1130DC011240C94C5060E94A20670F3959FC1F3EA
S1130DD0950F50E0551F629FF001729FBB27F00DE5
S1130DE0B11D639FAA27F00DB11DAA1F649F66273A
S1130DF0B00DA11D661F829F2227B00DA11D621F89
S1130E00739FB00DA11D621F839FA00D611D221F42
S1130E10749F3327A00D611D231F849F600D211D26
S1130E20822F762F6A2F11249F5750409AF0F1F0A9
S1130E3088234AF0EE0FFF1FBB1F661F771F881F12
S1130E4091505040A9F79E3F510580F00C947A06CA
S1130E500C94C5065F3FE4F3983ED4F386957795EA
S1130E606795B795F795E7959F5FC1F7FE2B880FB8
S1130E70911D9695879597F90895A1E21A2EAA1BBC
S1130E80BB1BFD010DC0AA1FBB1FEE1FFF1FA21736
S1130E90B307E407F50720F0A21BB30BE40BF50B33
S1130EA0661F771F881F991F1A9469F760957095BC
S1130EB0809590959B01AC01BD01CF010895BB279E
S1130EC04A3031F4992322F4BDE2909581959F4FE5
S1130ED00C946B07BB27FB015527AA27880F991F82
S1130EE0AA1FA41710F0A41B83955051B9F7A05D55
S1130EF0AA3308F0A95DA193009779F7B111B193D2
S1130F001192CB010C949109A0E0B0E0EAE8F7E07B
S1130F100C944B0AAE014B5F5F4FFA0161917191E2
S1130F20AF018091190190911A010E949A07E2E0A1
S1130F300C94670AABE0B0E0E0EAF7E00C943B0AFB
S1130F406C017B018A01FC0117821682838181FF77
S1130F50CCC1CE0101963C01F6019381F70193FDCA
S1130F60859193FF81917F01882309F4BAC1853269
S1130F7039F493FD859193FF81917F01853229F4A2
S1130F80B60190E00E94A109E7CF912C212C312CCD
S1130F90FFE1F315D8F08B3279F038F4803279F030
S1130FA08332A1F4232D20611DC08D3261F0803382
S1130FB069F4232D216016C0832D8260382EE32D21
S1130FC0E4603E2E2AC0F32DF8601DC037FC2DC00E
S1130FD020ED280F2A3040F08E32B9F436FC81C15E
S1130FE0232D2064322E19C036FE06C08AE0989E56
S1130FF0200D1124922E11C0EAE02E9E200D112402
S1131000222EF32DF0623F2E08C08C3621F4832D5E
S11310108068382E02C0883641F4F70193FD85912B
S113102093FF81917F018111B3CF982F9F7D9554B8
S1131030933028F40C5F1F4F9FE399830DC08336D0
S113104031F0833771F0833509F059C021C0F801BC
S1131050808189830E5F1F4F88248394912C5301D0
S113106013C02801F2E04F0E511CF801A080B1809A
S113107036FE03C0692D70E002C06FEF7FEFC5013B
S11310800E9486094C018201F32DFF773F2E16C082
S1131090280122E0420E511CF801A080B18036FEE6
S11310A003C0692D70E002C06FEF7FEFC5010E949D
S11310B07B094C01F32DF0683F2E820133FC1BC0E9
S11310C0822D90E088169906B0F4B60180E290E093
S11310D00E94A1092A94F4CFF50137FC859137FECB
S11310E081915F01B60190E00E94A10921102A9428
S11310F021E0821A91088114910471F7E8C08436C2
S113110011F0893641F5F80137FE07C0608171811D
S1131110828193810C5F1F4F08C060817181072E0B
S1131120000C880B990B0E5F1F4FF32DFF763F2E9B
S113113097FF09C090958095709561957F4F8F4F6B
S11311409F4FF0683F2E2AE030E0A3010E94DD09A2
S1131150882E861845C0853731F4232D2F7EB22E74
S11311602AE030E025C0932D997FB92E8F36C1F047
S113117018F4883579F0B5C0803719F0883721F034
S1131180B0C0E92FE061BE2EB4FE0DC0FB2DF460AB
S1131190BF2E09C034FE0AC0292F2660B22E06C015
S11311A028E030E005C020E130E002C020E132E078
S11311B0F801B7FE07C060817181828193810C5F61
S11311C01F4F06C06081718180E090E00E5F1F4F69
S11311D0A3010E94DD09882E8618FB2DFF773F2E80
S11311E036FE0DC0232D2E7FA22E891458F434FE12
S11311F00BC032FC09C0832D8E7EA82E05C0B82CEE
S1131200A32C03C0B82C01C0B92CA4FE0FC0FE014E
S1131210E80DF11D8081803321F49A2D997EA92E49
S113122009C0A2FE06C0B394B39404C08A2D867884
S113123009F0B394A3FC11C0A0FE06C0B21488F454
S1131240280C922C9B180EC0B21460F4B60180E2F4
S113125090E00E94A109B394F7CFB21418F42B18AC
S113126002C0982C212CA4FE10C0B60180E390E0AB
S11312700E94A109A2FE17C0A1FC03C088E790E068
S113128002C088E590E0B6010CC08A2D867859F03A
S1131290A1FE02C08BE201C080E2A7FC8DE2B60190
S11312A090E00E94A109891438F4B60180E390E02B
S11312B00E94A1099A94F7CF8A94F301E80DF11DD5
S11312C08081B60190E00E94A1098110F5CF22200F
S11312D009F442CEB60180E290E00E94A1092A946A
S11312E0F6CFF6018681978102C08FEF9FEF2B9690
S11312F0E2E10C94570AFC01059061507040011022
S1131300D8F7809590958E0F9F1F0895FC0161502A
S1131310704001900110D8F7809590958E0F9F1F13
S11313200895DC01FC01672F71917723E1F732976F
S113133004C07C916D9370836291AE17BF07C8F3AC
S113134008950F931F93CF93DF93FB01238121FD16
S113135003C08FEF9FEF2CC022FF16C04681578138
S1131360248135814217530744F4A081B1819D0142
S11313702F5F3F4F318320838C93268137812F5FEA
S11313803F4F3783268314C08B01EC01FB0100849B
S1131390F185E02D0995892BE1F6D80116968D91FA
S11313A09C911797019617969C938E931697CE014E
S11313B0DF91CF911F910F910895FA01AA27283048
S11313C051F1203181F1E8946F936E7F6E5F7F4F0E
S11313D08F4F9F4FAF4FB1E03ED0B4E03CD0670F8A
S11313E0781F891F9A1FA11D680F791F8A1F911DDD
S11313F0A11D6A0F711D811D911DA11D20D009F42D
S113140068943F912AE0269F11243019305D31936E
S1131410DEF6CF010895462F4770405D4193B3E057
S11314200FD0C9F7F6CF462F4F70405D4A3318F0FE
S1131430495D31FD4052419302D0A9F7EACFB4E0AF
S1131440A6959795879577956795BA95C9F7009767
S11314506105710508959B01AC010A2E0694579508
S1131460479537952795BA95C9F7620F731F841F5F
S1131470951FA01D08952F923F924F925F926F92F5
S11314807F928F929F92AF92BF92CF92DF92EF9210
S1131490FF920F931F93CF93DF93CDB7DEB7CA1B91
S11314A0DB0B0FB6F894DEBF0FBECDBF09942A88BC
S11314B0398848885F846E847D848C849B84AA8464
S11314C0B984C884DF80EE80FD800C811B81AA81F1
S11314D0B981CE0FD11D0FB6F894DEBF0FBECDBFBC
S10B14E0ED010895F894FFCF1B
S11314E80B01566F6C74203D20002E005600616479
S11314F863206E756D0070726573732073656C6517
S11315086374203C2D2D00454550524F4D00203129
S1131518202D2D3E206D6561676572002032202DD7
S11315282D3E206869737400636F756E740053658B
S11315386C656374006D6167657200656570726FD0
S11315486D0073746F7000212120536F6D655468AA
S1131558696E672057656E742057726F6E67202115
S11315682120506C6561736520526520436865636A
S11315786B20596F75722053657474696E67732094
S10715882121000019
S9030000FC
